:100000000C94D0040C94EF040C94EF040C94E013C3
:100010000C94EF040C94EF040C94EF040C94EF0494
:100020000C94EF040C94EF040C94EF040C94EF0484
:100030000C94EF040C94EF130C94EF040C94EF0465
:100040000C94EF040C94EF040C94EF040C94EF0464
:100050000C94EF040C94EF040C94EF040C94EF0454
:100060000C94EF040C94EF040C94EF040C94EF0444
:100070000C94EF040C94EF040C94EF040C94EF0434
:100080000C94EF040C94EF040C94EF040C94EF0424
:100090000C94EF040C94EF040C94EF040C94EF0414
:1000A0000C94EF040C94EF040C94EF040C94EF0404
:1000B0000C94EF040C94EF040C94EF040C94EF04F4
:1000C0000C94EF040C94EF040C94EF040C94EF04E4
:1000D0000C94EF040C94EF040C94EF040C94EF04D4
:1000E0000C94EF040C94EF040C94EF040C94C613DE
:1000F0000C943E130C94EF040C94EF040C94D61360
:100100000C94EF040C94EF040C94EF040C94EF04A3
:100110000C94EF040C94EF040C94EF040C94EF0493
:10012000120012000200015201910300010B02FFB4
:1001300001E80200019F02FF01FE0100010204FF2D
:100140000180010B04FF01E8011F04FF01FC015FB6
:1001500004FF01FD019F04FF01FE019F04FF01FE5A
:10016000019F04FF01FE019F04FF01FE015F04FFE8
:1001700001FD011F04FF01FC010B04FF01E8010266
:1001800004FF01800100019F02FF01FE0200010B3C
:1001900002FF01E8030001520189020000000C0087
:1001A0000A000100015201400100010B01FF01FDA5
:1001B0000100011F02FF0100015F02FF0140019FDA
:1001C00002FF0180019F02FF0180015F02FF0140E9
:1001D000011F02FF0100010B01FF01FD020001529E
:1001E0000140010000000128011063786350000104
:1001F00001637801110128633203C0F80002C304CF
:1002000002C40502D01D02B5000138023A020236CE
:100210000002B09F05300000007705F012121212A4
:100220000120012900000000000000000000000083
:10023000000C1E1E1E0C0C0C000C0C000033333383
:100240003300000000000000003636367F363636B8
:100250007F36363600183E63033E6060633E1818F2
:100260000063633030180C0606636300001C3636EA
:100270001C6E7B33337B6E00001818180C000000D6
:100280000000000000180C0606060606060C180002
:1002900000060C1818181818180C060000000000AA
:1002A000361C7F1C360000000000000018187E1865
:1002B0001800000000000000000000000018180CEA
:1002C0000000000000007F000000000000000000AF
:1002D00000000000001818000060603030180C06A4
:1002E00006030300003E63636B6B6B6B63633E004E
:1002F00000181C1E1818181818187E00003E63609D
:100300006030180C06037F00003E6360603C606054
:1003100060633E00002030383C36337F30303000A0
:10032000007F0303033F606060633E00003C060300
:10033000033F636363633E00007F63606030180CBB
:100340000C0C0C00003E6363633E636363633E001A
:10035000003E636363637E6060301E000000000047
:1003600000181800001818000000000000181800FD
:100370000018180C000030180C0603060C1830008A
:1003800000000000007F007F000000000000060C5D
:1003900018306030180C0600003E636330180C0CF7
:1003A000000C0C00003E6363637B7B7B03037E00D9
:1003B000001C366363637F6363636300003F6363B2
:1003C000633F636363633F00003E63030303030310
:1003D00003633E00001F33636363636363331F0083
:1003E000007F0303033F030303037F00007F030336
:1003F000033F030303030300003E6303037B6363C4
:1004000063637E0000636363637F636363636300AE
:10041000003F0C0C0C0C0C0C0C0C3F000078303026
:100420003030303033331E00006363331B0F0F1B3B
:1004300033636300000303030303030303037F0029
:10044000006363777F6B6B6B636363000063636759
:10045000676F7B7373636300003E6363636363630F
:1004600063633E00003F636363633F030303030072
:10047000003E6363636363636F5B3660003F636387
:10048000633F1B3333636300003E6303060C183085
:1004900060633E0000FF1818181818181818180084
:1004A000006363636363636363633E00006363636A
:1004B00063636363361C0800006363636B6B6B6B81
:1004C0007F36360000636363361C1C36636363004B
:1004D0000033333333331E0C0C0C0C00007F606090
:1004E00030180C0603037F00001E060606060606EB
:1004F00006061E0000030306060C1830306060007C
:10050000001E18181818181818181E0000081C3695
:100510006300000000000000000000000000000078
:10052000000000FFFE181818300000000000000056
:10053000000000003E60607E63637E0000030303F2
:100540003B67636363673B00000000003E63030397
:1005500003633E00006060606E73636363736E00EC
:10056000000000003E63637F03037E0000386C0CD4
:100570000C3F0C0C0C0C0C00000000006E7363634D
:10058000736E60633E0303033B67636363636300EF
:10059000001800001C18181818183C000060000013
:1005A00078606060606063633E03030363331B0F26
:1005B0001B336300001C18181818181818183C0072
:1005C00000000000377F6B6B6B636300000000006E
:1005D0003B67636363636300000000003E63636323
:1005E00063633E00000000003B676363673B0303F7
:1005F000030000006E736363736E60606000000050
:100600003B67030303030300000000003E630E3852
:1006100060633E00000C0C0C7F0C0C0C0C6C380062
:10062000000000006363636363633E00000000003A
:1006300063636363361C08000000000063636B6B38
:100640006B7F3600000000006363361C3663630076
:100650000000000063636363736E60633E0000002C
:100660007F60301C06037F0000380C0C0C070C0C5C
:100670000C0C3800000C0C0C0C000C0C0C0C0C00BE
:1006800000070C0C0C380C0C0C0C070000006E3B27
:10069000000000000000000000000000000000005A
:1006A000000000000000000000080808080800081A
:1006B00000141414000000000014143E143E14141E
:1006C00000083C021C201E0800042A1408142A10EA
:1006D00000040A0A042A122C000C0C080400000072
:1006E0000008040404040408000810101010100886
:1006F000000014083E081400000008083E08080026
:100700000000000000000C08040000003E00000093
:100710000000000000000C0C00002030180C060245
:10072000001C22322A26221C00080C080808081C7B
:10073000001C22201804023E001C22201C20221C27
:1007400000101814123E1038003E021E2020221CF9
:10075000001804021E22221C003E2010080808086F
:10076000001C22221C22221C001C22223C20100CD5
:100770000000000C0C000C0C0000000C0C000C081D
:1007800004100804020408100000003E003E0000AF
:100790000004081020100804001C22221008000881
:1007A000001C223A2A3A023C001C2222223E22222B
:1007B000001E22221E22221E001C22020202221CD5
:1007C000000E12222222120E003E02021E02023EE1
:1007D000003E02021E020202001C22020232223CE1
:1007E000002222223E222222001C08080808081C9F
:1007F000002020202022221C0022120A060A122297
:10080000000202020202023E002236362A2A222278
:10081000002226262A323222001C22222222221CD8
:10082000001E22221E020202001C2222222A122C58
:10083000001E22221E122222001C22021C20221C28
:10084000003E080808080808002222222222221C52
:100850000022222214140808002222222A2A3622E8
:100860000022221408142222002222141C08080844
:10087000003E20100804023E001C04040404041C72
:10088000000002060C183020001C10101010101C64
:10089000000814220000000000000000000000001A
:1008A0003F081000000000000000001C203C223C1B
:1008B0000002021A2622261A0000001C2202221C14
:1008C0000020202C3222322C0000001C223E021C70
:1008D000001824040E0404040000002C32223C20E2
:1008E0001C02021A262222220008000C0808081CFA
:1008F00000100018101010120C0202120A060A1240
:10090000000C08080808081C000000162A2A2A2AD9
:100910000000001A262222220000001C2222221C93
:100920000000001A2622261A0200002C3222322C45
:100930002000001A2404040E0000003C021C201EAB
:100940000004040E04042418000000222222322C89
:10095000000000222222140800000022222A2A1469
:1009600000000022140814220000002222223C2051
:100970001C00003E1008043E001804040204041881
:100980000008080808080808000C10102010100CB7
:1009900000042A1000000000000000000000000019
:1009A00011241FBECFEFD1E4DEBFCDBF13E0A0E026
:1009B000B2E0ECE0F5E300E00BBF02C007900D925F
:1009C000A63CB107D9F726E0A6ECB3E001C01D9222
:1009D000A932B207E1F70E941F140C94841A0C94F8
:1009E00000002F923F924F925F926F927F928F9270
:1009F0009F92AF92BF92CF92DF92EF92FF920F93AE
:100A00001F93CF93DF93CDB7DEB7A8970FB6F894B7
:100A1000DEBF0FBECDBF9CA38BA32B011A01C90162
:100A2000B8019EA28DA28DAC9EAC611571058105A9
:100A3000910549F421962EAD3FAD21972F7E219649
:100A40003FAF2EAF219721964EAD5FAD2197442742
:100A5000547058A74FA32196EEADFFAD2197F2FF3A
:100A600007C0712C612C611571058105910539F163
:100A7000FFAD11E4F5FF11E69E012F5F3F4F3AA352
:100A800029A3712C612C1A50A60195010E940F1AFE
:100A90006A300CF03FC0605D8FEF681A780AE9A1F8
:100AA000FAA16193FAA3E9A3B901CA01611571051D
:100AB0008105910521F0F0E26F16710429F7219666
:100AC0002EAD3FAD2197227033273AA329A33FAD26
:100AD00031FD40C021968EAD9FAD21978170992741
:100AE0008114910479F0009769F0E11008C0219613
:100AF0002EAD3FAD21972C703327232B19F041E009
:100B0000841A9108E1E0F0E0EC0FFD1FE60DF71DFF
:100B100020E30AC0610FC0CF50E26516710449F0AE
:100B20005FEF651A750A21934DA15EA164167506E3
:100B300098F3E1E0F0E0EC0FFD1FE60DF71D20E378
:100B4000009741F06814790428F440E264167104B7
:100B500008F485C05FAD54FF3BC0C501EFA1F8A507
:100B6000EF2B09F083C06114710409F47FC02DA13B
:100B70003EA12615370521F06814790409F076C0E6
:100B800093012150310909F46FC08031910509F0BA
:100B900091C032E0631A71084FAD45FD7DC050E24F
:100BA0006516710420F5FE01E60DF71D88E78183C7
:100BB000C30101963C0130E263167104C0F4FE01EA
:100BC000E60DF71D80E38183A3014F5F5F4F3A017C
:100BD00050E26516710458F4EE2009F46DC0FE0170
:100BE000E60DF71D8DE28183C30101963C0121963C
:100BF000CEACDFAC219733E0C322DD248101CD28C8
:100C000009F487C09E012F5F3F4F69017901E60C0F
:100C1000F71CA801EC14FD0409F07FC0C301800F8C
:100C2000911F29A13AA1232B09F092C0A8960FB6D3
:100C3000F894DEBF0FBECDBFDF91CF911F910F9112
:100C4000FF90EF90DF90CF90BF90AF909F908F90EC
:100C50007F906F905F904F903F902F9008953FEF5F
:100C6000631A730A21936CCF712C612C803191052A
:100C700009F492CF029709F09ECFF0E26F1671044B
:100C800008F0B5CFFE01E60DF71D82E681839301E2
:100C90002F5F3F4F39018FCF90E26916710408F042
:100CA000A6CFFE01E60DF71D88E58183F30131969D
:100CB0003F0181CF3901DECF9FAD92FF09C0FE0118
:100CC000E60DF71D8BE28183F30131963F018FCF53
:100CD000FFADF3FF8CCFFE01E60DF71D80E28183AF
:100CE00093012F5F3F4F390182CF68014FEFC41A44
:100CF000D40A2FEF3FEFA801B20180E2EBA1FCA1E3
:100D000009958601C701800F911F8815990568F321
:100D100079CF7301E218F308F5CF5A013FEFA31A18
:100D2000B30A2FEF3FEFB201F70182917F01EBA1F0
:100D3000FCA10995A5016ECF8C010F5F1F4F2FEF0E
:100D40003FEFAC01B20180E2EBA1FCA10995C80123
:100D50009C01221933092815390570F367CF982FA4
:100D6000FB01DA018770907F903D29F128F4903AD9
:100D700041F0903BA1F00895903E49F1903F99F1E8
:100D80000895211109C024E330E02D933C9323E31F
:100D900030E031832083089522E330E0F6CF211143
:100DA00007C025E230E02D933C9324E230E0F1CF00
:100DB00023E230E0F8CF211107C02BE230E02D9381
:100DC0003C932AE230E0E5CF29E230E0F8CF211170
:100DD00007C02EE230E02D933C932DE230E0D9CFD6
:100DE0002CE230E0F8CF211107C021E330E02D9351
:100DF0003C9320E330E0CDCF2FE230E0F8CF0895F0
:100E0000E0910E0687E0E89FF0011124ED51FA4FC2
:100E10009381868181FD05C081E0989F802D1124FA
:100E2000089582E0FACFE0910E0647E0E49FF001DA
:100E30001124ED51FA4F8281968122E090FF21E04A
:100E4000829F202D1124822F63E00E94401A392FA7
:100E5000822F90E063E070E0332329F0AB01431B65
:100E60005109840F951F0E94601A862F08958138BA
:100E7000910514F090E080E06938710514F070E09D
:100E800060E09093E2058093E1057093E005609344
:100E9000DF05089580912706882329F080911806A0
:100EA0009091190608958FEF9FEF0895CF93FC015D
:100EB000CFB7F894448155818FEF9FEF41155105CD
:100EC000C9F026813781A081B181A20FB31F8C9117
:100ED00090E02F5F3F4F378326836281738126170F
:100EE000370720F0261B370B3783268341505109E3
:100EF00055834483CFBFCF910895CF93DF931F9243
:100F0000CDB7DEB7898389818EBD00000DB407FEA1
:100F1000FDCF8EB50F90DF91CF910895CF93DF93E2
:100F200000D000D0CDB7DEB721E0AE014F5F5F4FFC
:100F3000BE016D5F7F4F0E94AF06E981FA8120817B
:100F400030E0A90102C0559547958A95E2F7CA019C
:100F500081700F900F900F900F90DF91CF910895B7
:100F60001F93CF93DF9300D000D0CDB7DEB7162FFD
:100F700020E0AE014F5F5F4FBE016D5F7F4F0E946B
:100F8000AF06E981FA81111115C0408121E030E0FE
:100F9000B90102C0660F771F8A95E2F7CB018095F1
:100FA000842380830F900F900F900F90DF91CF914B
:100FB0001F910895908121E030E001C0220F8A95B1
:100FC000EAF7892F822BEDCFFF920F931F93CF93D8
:100FD000DF93F82E192F062F60E087EE0E94B007EE
:100FE000CF2DD12F0C0F1D2F111DC017D10749F484
:100FF00061E087EEDF91CF911F910F91FF900C94EC
:10100000B00789910E947D07F0CFCF93C82F60E091
:1010100087EE0E94B00760E086ED0E94B0078C2F3B
:101020000E947D0761E086ED0E94B00761E087EED7
:10103000CF910C94B0071F93CF93DF9300D0CDB71F
:10104000DEB7909128069923E9F011E0882321F07A
:10105000182F853108F014E125E0129FC0011124FA
:1010600088539F4F8F3F910509F094F41A8289832A
:1010700080EC0E94050862E0CE0101960E94E40720
:101080001093CA050F900F90DF91CF911F91089593
:1010900021E02A83ECCFAF92BF92CF92DF92EF9202
:1010A000FF920F931F93CF93DF9300D000D0CDB763
:1010B000DEB7E0912806EE2381F1803891056CF5CA
:1010C000603A710554F5413851053CF5213A310536
:1010D00024F589017A016B015C018AE20E9405080E
:1010E0001982AA821B824FEF4E0D4A0D4C8364E099
:1010F000CE0101960E94E4078BE20E940508198246
:10110000CA821B8201500C0D0C8364E0CE01019653
:101110000E94E4078CE20E9405080F900F900F9048
:101120000F90DF91CF911F910F91FF90EF90DF9083
:10113000CF90BF90AF900895EF92FF920F931F93BF
:10114000CF93DF9320912806222309F43FC0EA01C0
:101150007B018C01FA0184913196449131969491EE
:101160003196E4912E2F30E0322F2227290F311DA6
:1011700050E0542F4427840F952F911D63E070E0B9
:101180000E94601AAB01B701C8010E944B0860E0E1
:1011900087EE0E94B0072496FE01F490F1100AC079
:1011A00061E087EEDF91CF911F910F91FF90EF905B
:1011B0000C94B007FE013196049110E0802F0E943C
:1011C0007D071F5F1F11FACF2296E6CFDF91CF91E7
:1011D0001F910F91FF90EF9008951F93CF93DF938E
:1011E00000D000D0CDB7DEB7162F20E0AE014F5FA4
:1011F0005F4FBE016D5F7F4F0E94AF06EB81FC81A8
:101200001130B9F0123069F1408121E030E0B901CC
:1012100002C0660F771F8A95E2F7CB018095842381
:1012200080830F900F900F900F90DF91CF911F91BF
:101230000895408121E030E0B90102C0660F771FB8
:101240008A95E2F7CB01942F982B9083E981FA815C
:101250009081982B9083EB81FC81908180958923EC
:10126000DFCF908121E030E001C0220F8A95EAF7BC
:10127000892F822BD5CF80914201807E8860809318
:1012800042018FE99FE00197F1F700C000008091D3
:1012900041018F71883011F481E0089580914201FD
:1012A00090914201807E8360892B809342018FE977
:1012B0009FE00197F1F700C00000809141018F711C
:1012C000883051F3809139018D7F809339018FE906
:1012D0009FE00197F1F700C00000909141019F71DC
:1012E00081E0983009F080E00895809127068823F6
:1012F00081F010922706109225061092240681E0B4
:10130000809326060E943B0982E080933901109267
:101310004E010895CF93C82F109227068FEF8C0FA0
:10132000803108F0C1E08FB7F89428E434E03093BE
:1013300015062093140620E031E030931706209321
:10134000160610921B0610921A0610921906109299
:1013500018068FBF8FB7F89428EC33E030931D0642
:1013600020931C0620E830E030931F0620931E06D1
:101370001092230610922206109221061092200647
:101380008FBF809141018F31D9F1809141018F71DF
:101390008F3029F4809139018D7F809339018091BC
:1013A000390181608093390110924E010E943B09FE
:1013B000882321F1809144018062809344018CE470
:1013C00080934E0180914801807E9AE09C0F892B8A
:1013D00080934801809145018C7F809345018091E5
:1013E0004201807E86608093420110922506109211
:1013F000240681E080932606C0932706CF910895A6
:101400008FE99FE00197F1F700C00000BACF0F937A
:101410001F93CF9380914201807E89608093420127
:10142000809141018970E1F301E811E0CFE7C00F3D
:101430008CE196E00E94560797FD08C0F801819361
:101440008F010F3FF1E01F0789F7CEE7EC2FF0E0A7
:10145000EF57FE4F1082CD5FC09380018091420113
:1014600082608093420180913901826080933901CA
:10147000809139018D7F809339018FE99FE0019739
:10148000F1F700C0000080914201807E8660809369
:101490004201CF911F910F910895EF92FF920F9308
:1014A0001F93CF93DF93C9E4D5E080E8FE0111924A
:1014B0008A95E9F70E944A071816190604F58091E3
:1014C00027068823E1F08FE7FE0111928A95E9F75C
:1014D0000E944A07EC017C01803891051CF08FE7DF
:1014E000E82EF12C09E415E0C801895495408E15C9
:1014F0009F0574F089E495E01C161D0614F090E039
:1015000080E0DF91CF911F910F91FF90EF900895B0
:1015100084E196E00E945607F80181938F01E4CFA1
:101520004F925F926F927F928F929F92AF92BF92F3
:10153000CF92DF92EF92FF920F931F93CF93DF939F
:10154000CDB7DEB7C858D1090FB6F894DEBF0FBECD
:10155000CDBF6A017901502E20912806222309F47B
:101560009FC05C0180E8A816B1041CF09FE7A92E7B
:10157000B12CB7FE02C0B12CA12C4B01683871050B
:101580001CF087E8882E912CC6018A0D9B1D80389F
:1015900091052CF080E890E06C01CA18DB08C701C7
:1015A000880D991D893891052CF068E870E07B0161
:1015B000E818F908E0910D06F0E0EA52FD4F0081CD
:1015C000E0910C06F0E0EA52FD4F10819701A60170
:1015D000B401C5010E944B08412C612E712C4E14A0
:1015E0001F040CF475C082E0581609F459C0970125
:1015F00041E050E0B401C5010E944B08602F607EBD
:10160000812F8F71682B70E0A701CE0101960E9497
:101610007D1A6E2DCE0101960E94E407C5018C0D46
:101620009D1D970141E050E0B40101970E944B08D5
:10163000602F63701C7F612B70E0A701CE010196C3
:101640000E947D1A6E2DCE0101960E94E40721E0D2
:1016500030E0A601B401C5010E944B0810E0A601CC
:10166000B801CE0101960E947D1A6C2DCE01019623
:101670000E94E407B701680D791D6150710921E0EE
:1016800030E0A601C5010E944B08A601B801CE01B9
:1016900001960E947D1A6C2DCE0101960E94E407EE
:1016A000C857DF4F0FB6F894DEBF0FBECDBFDF9136
:1016B000CF911F910F91FF90EF90DF90CF90BF904F
:1016C000AF909F908F907F906F905F904F90089514
:1016D000A601B301CE0101960E947D1A6C2DCE01A8
:1016E00001960E94E40743947ACFEF92FF920F9302
:1016F0001F93CF93DF93CDB7DEB7C058D1090FB694
:10170000F894DEBF0FBECDBF909128069923F9F063
:10171000082F28E830E040E850E070E060E090E01A
:1017200080E00E944B0888E8E82EF12C10E040E8A9
:1017300050E0B801CE0101960E947D1A60E8CE010A
:1017400001960E94E40781E0E81AF10881F7C05889
:10175000DF4F0FB6F894DEBF0FBECDBFDF91CF9144
:101760001F910F91FF90EF9008952F923F924F920B
:101770005F926F927F928F929F92AF92BF92CF9221
:10178000DF92EF92FF920F931F93CF93DF93CDB72A
:10179000DEB728970FB6F894DEBF0FBECDBF4E8CD4
:1017A0005F8C209148052C833D8D309348058E0138
:1017B000005E1F4F712C612CD2018C91811136C0BB
:1017C000A301BFEF6B167B0611F44EEF5FEF2FEF17
:1017D0003FEFBE016F5F7F4F80E00E948310ED8D71
:1017E000E23029F48091270681110E94070AFC81CA
:1017F000F43010F4F0934805C30128960FB6F8941E
:10180000DEBF0FBECDBFDF91CF911F910F91FF9033
:10181000EF90DF90CF90BF90AF909F908F907F9090
:101820006F905F904F903F902F9008954FEF441A24
:10183000540A73015FEFE51AF50A853209F021C1F8
:1018400030E020E006C08D32A1F0803359F42160F1
:101850002F01F20181918B3271F0ACF7803269F087
:10186000833269F090ED980F9A30A0F51B821A82AE
:1018700019C02260EDCF2460EBCF2860E9CF206152
:10188000E7CFAAE06A817B81A69FC001A79F900D48
:101890001124C097BC01640F711D47FD7A957B83AD
:1018A0006A832F01F201419180ED840F8A3048F361
:1018B000D2018C918E3209F059C0C2010196346078
:1018C00011964C9150ED540F5A3008F03EC0912CB7
:1018D000812C28C08A32A1F4C8010296D801CD908B
:1018E000DC90D7FE0AC02260442755274C195D09B9
:1018F0005B834A838C012F01DBCFDB82CA82FACF64
:101900001B821A82D5CFBAE0B89DC001B99D900D57
:1019100011244C0150E3851A9108840E911C47FD57
:101920009A94CF01FC01419150ED540F5A3058F375
:101930002C01A2014F5F5F4FF20180818A36E9F0EE
:10194000C4F48836C1F1A2011EC04A3271F4C80144
:101950000296D8018D909C9097FE02C0912C812C0C
:10196000B2E04B0E511C8C01E4CF2C01912C812C48
:10197000E0CF8C3621F08A3731F7326004C08181A4
:101980008C36A1F03160DA018D912D01893601F19B
:101990000CF069C0823609F4C6C1A4F4853209F49A
:1019A000B0C1883509F069C0206277C03360A201F8
:1019B0004E5F5F4FE8CF8181883611F02068E3CF1A
:1019C000206CF5CF833609F4B1C0843609F055C0D8
:1019D0002F7E4AE050E0893619F0843609F0237FE3
:1019E00032FD2E7FB90166277270893619F0843670
:1019F00009F072C0672B09F0DFCE5A01D12CC12C3F
:101A0000180130FF4DC0B4E02B0E311CF80180816D
:101A10009181A281B3817C018D01EE2417FDE394B5
:101A2000FF2400271127B7FF07C0B095A095909518
:101A300081959F4FAF4FBF4F3F932F93FB81FF93F4
:101A40002A812F938C019D01A301BE016F5F7F4FFF
:101A500083E890E10E94F1043C010F900F900F90F9
:101A60000F908101A9CE833709F4AFC08CF48F3673
:101A700009F456C1803709F42FC173012FEFE21A20
:101A8000F20A2FEF3FEFA301BE016F5F7F4F44C10A
:101A9000853709F49DCF883781F740E150E09FCF2B
:101AA00042E0240E311C26FF13C0D8018C91082E71
:101AB000000C990BE92EEE1CEE24EE1C97FF03C0E0
:101AC000919581959109092E000CAA0BBB0BB4CFFF
:101AD000F80180819181EECF672B09F06DCE5A011C
:101AE000D12CC12C180130FF10C044E0240E311C51
:101AF000F80180819181A281B3813F932F93FB8173
:101B0000FF932A812F93E12C9DCF42E0240E311CBC
:101B1000D8018D919C9126FD9927B0E0A0E03F93DC
:101B20002F93EB81EF93FA81FF93EDCF490142E0D0
:101B300084229924A301AA24A394B12C21FD1AC0C4
:101B4000F12CE12C08C02FEF3FEFBE016F5F7F4FFC
:101B500080E20E948310A3014E0D5F1D570162E0D9
:101B6000A60EB11C7FEFE71AF70A8A819B81E8165F
:101B7000F90648F33A019FEF691A790A7801A2E061
:101B8000EA0EF11C2FEF3FEFBE016F5F7F4FF801B0
:101B900080810E948310892829F02A813B81A21626
:101BA000B30610F0870108CE83010F5F1F4F2FEFA0
:101BB0003FEFA301BE016F5F7F4F80E20E94831061
:101BC000FFEFAF1ABF0A3801E8CFA8014E5F5F4FA1
:101BD0005E834D83D8010D911C91A4018114910461
:101BE00011F44FEF5FEFF80190E080E0BF016F5F0D
:101BF0007F4FA081AA2319F048175907C1F4E01BB1
:101C0000F10B19012224B4E03B2232FF04C08E16EE
:101C10009F0608F4F401A9014270552758874F83A5
:101C20007F01A30121FD1BC06E1A7F0A0CC0019623
:101C3000FB01DCCF2FEF3FEFBE016F5F7F4F80E2F4
:101C40000E948310F701A3014E0F5F1F7F016FEF0A
:101C5000E61AF60A8A819B81E817F90758F35A01B8
:101C6000A01AB10A08C049012FEF3FEFBE016F5F14
:101C70007F4F0E948310A501400F511FD8018D9105
:101C80008D01882341F02114310471F39401215016
:101C90003109892841F7EF81F8853A01EF2BC9F422
:101CA0000D811E8189CD83010F5F1F4F2FEF3FEF05
:101CB000A301BE016F5F7F4F80E20E948310380155
:101CC000C701860D971D2A813B818217930758F320
:101CD000E7CFE41AF50AF4CF180142E0240E311CD4
:101CE000D8018D919C91B0E0A0E021623F932F93A9
:101CF0001F92E4E0EF9320E1A22EB12CC12CD12C55
:101D000002CF7301FFEFEF1AFF0A2FEF3FEFA3019E
:101D1000BE016F5F7F4F85E20E94831037014CCD7B
:101D200048E050E05CCE42E050E059CECF92DF92E6
:101D3000FF920F931F93CF93DF9300D000D0CDB7C6
:101D4000DEB7FC01F490FF2081F18F010E5F1F4F81
:101D50003196849193E6F91213C090E0B0E0A0E0D0
:101D60000097A105B10511F4F801ECCFEFE9FFE010
:101D70003197F1F700C000000197A109B109F0CF38
:101D80000E940508FA94FF2079F3CF2CD12CA601EC
:101D9000B801CE0101960E94CC190C0D1D1D6F2DAE
:101DA000CE0101960E94E407DFCF0F900F900F90B5
:101DB0000F90DF91CF911F910F91FF90DF90CF9007
:101DC00008952F923F924F925F926F927F928F92DF
:101DD0009F92AF92BF92CF92DF92EF92FF920F93BA
:101DE0001F93CF93DF93CDB7DEB766970FB6F89406
:101DF000DEBF0FBECDBF482F2DB73EB73C8B2B8B20
:101E0000C090E105D090E2056091DF057091E0059A
:101E10007A876987E0910D06F0E0EA52FD4F8081F4
:101E200083708A8BE0910C06F0E0EA52FD4F10813E
:101E30001370E0910E062E2F30E077E0E79FF0015F
:101E40001124ED51FA4FA280968172E0872E90FD09
:101E500002C0882483948A9C802D112457E0529FCD
:101E6000F001539FF00D1124ED51FA4FF38162E020
:101E7000762E91FD02C0772473947F9EF02D11245D
:101E800097E0929FD001939FB00D1124AD51BA4FAE
:101E90001496BC9014971596EC919BEA899F912D0E
:101EA00011249695592F550F950FA82FA91B03E0C4
:101EB0000A1BA11101C000E090E0B601660F771F78
:101EC0006C0D7D1D680F791F6138714024F1EE247F
:101ED000EA94FE2CC7016B897C890FB6F8947EBF0B
:101EE0000FBE6DBF66960FB6F894DEBF0FBECDBFB6
:101EF000DF91CF911F910F91FF90EF90DF90CF90E6
:101F0000BF90AF909F908F907F906F905F904F9019
:101F10003F902F900895800F911D63E070E00E9424
:101F2000601A7B016F2F70E078876F83E69EC00197
:101F3000E79E900DF69E900D11249C838B83ADB788
:101F4000BEB7A81BB90B0FB6F894BEBF0FBEADBF8E
:101F50006DB77EB76F5F7F4F7C876B874E2E512C9E
:101F60008DB79EB7841995090FB6F8949EBF0FBE22
:101F70008DBFADB7BEB711961D0187E0829FF001FE
:101F8000839FF00D1124ED51FA4F042E000C550BD8
:101F900040525109449DC001459D900D549D900DA6
:101FA000112460817181680F791FA201CD010E9407
:101FB000CC19F1019080312F330F330F330F312BB8
:101FC0000230A1F1312F1D868A9CF0011124F98B7A
:101FD000E88B28E0829EF0011124FF87EE876B8555
:101FE0007C857A836983F0E0E0E021E02E832D8315
:101FF00040E06B2D70E07E8B6D8BE415F5050CF4E5
:102000007BC02F813885A70169857A85C6010E942A
:102010004B086B818B859C850E94E407EC0CFD1CB2
:1020200069857A85C7010E94370754CFF1E0FD87A3
:10203000CBCF6620D1F07BEA679E812D1124869557
:10204000982F990F890F681210C02B3D09F42FEFBC
:10205000A981BA812D93BA83A9834F5F6B817C815B
:102060004617170608F033CF212FA114B10461F0F1
:10207000C5016E857F850E94601A892B29F43196EF
:10208000D101AE0FBF1F9C90220F220F220F8A8911
:1020900090FE812F282B63947D81781550F19694C2
:1020A00081E08D83AFEFAA1ABA0A68897989A616EA
:1020B000B7060CF4BECF002321F0220F220F220F0F
:1020C000212B2B3D09F42FEFA981BA812D93BA83DF
:1020D000A9834F5F31962E81271598F46D897E89EB
:1020E000E61BF70B22E02E83D101AE0FBF1F9C90A1
:1020F00084CF92E09D83D6CF6D84232FB12CA12C69
:10210000D4CF21E0F0CF282F8823E9F18091480532
:10211000813019F0823021F00895822F0C94E10E65
:1021200080912706882379F13FB7F89480912006A3
:102130009091210660911E0670911F0686179707E1
:10214000C0F44091220650912306840F951F0E94EF
:102150004C1AE0911C06F0911D06E80FF91F208330
:1021600080912006909121060196909321068093FC
:1021700020063FBF80912006909121068F37910560
:1021800010F00C94070A0895EF92FF920F931F939B
:10219000CF93DF9340912806442301F1EC01FC0129
:1021A00001900020E9F731978F01081B190B7C0182
:1021B000C7018C1B9D0B8017910744F4F701819197
:1021C0007F010E94E10E9C0197FFF2CFC901DF91D0
:1021D000CF911F910F91FF90EF9008952FEF3FEF58
:1021E000F5CFCF93DF93EC01CB012091280622237A
:1021F00041F0BA010E943707CE01DF91CF910C94D4
:10220000C4108FEF9FEFDF91CF9108953F924F92CF
:102210005F926F927F928F929F92AF92BF92CF9276
:10222000DF92EF92FF920F931F93CF93DF93E09192
:102230000C06F0E0EA52FD4F80810E94750B82E0AF
:10224000F82EF0920E0613E010930D0610920C0675
:102250000E941307682F660F660F680FC1E0C60F54
:10226000C0930B060E941307DAE02C2F8D9F200DE0
:102270001124822F8E5F8093C9056C2F70E048E097
:1022800050E087E393E00E94F1100E940007C8E04D
:10229000C80F4C2F50E060910B0670E080EE92E08A
:1022A0000E94F1100E940007C80F4C2F50E060916F
:1022B0000B0670E08BEE92E00E94F1100E94000786
:1022C000C80F4C2F50E060910B0670E086EF92E053
:1022D0000E94F1100E940007C80F4C2F50E060913F
:1022E0000B0670E081E093E00E94F1100E9400076D
:1022F0008C0F482F50E060910B0670E08CE093E06B
:102300000E94F110EE24E394E0920E066091C9055C
:1023100070E048E050E087E193E00E94F1101F92E6
:10232000DF931F9286E08F9387E08F9386EE8F93E3
:102330008DE193E09F938F93EF920E94B50B0E94E3
:102340000007B82E10930D0610920C069AE0980F15
:10235000C92ED12CC091C905D0E001E024E130E0C4
:102360004AE050E0B601CE010E94900AE0920C06CD
:1023700024E130E04AE050E0B601CE010A960E9426
:10238000900AF0920C0624E130E04AE050E0B601F9
:10239000CE0144960E94900A10930C0624E130E08E
:1023A0004AE050E0B601CE014E960E94900A00E24B
:1023B0000B0D10920C0610920E06402F50E0BE013D
:1023C00089E293E00E94F1100E940007BB24B394BD
:1023D000B80EB00EE0920E064B2D50E06091C9058C
:1023E00070E089E293E00E94F1100E9400078F5F85
:1023F000B80EF0920E064B2D50E06091C90570E0CA
:1024000089E293E00E94F1100E94000710930E06EB
:102410008F5F8B0D482F50E06091C90570E089E215
:1024200093E00E94F110E0920E0690E0C92E92E037
:10243000D92E24E1A22E22E0B22E8DB79EB70996A6
:102440000FB6F8949EBF0FBE8DBF7601C0E0F701B6
:10245000A191B1917F01109799F0FD0101900020A9
:10246000E9F731978F010A1B1B0B0E941307F82F06
:10247000F09FC001F19F900D1124C81708F4C82FD8
:10248000AE14BF0421F7F6E0FF2EFC0E83E080932C
:102490000D0610920C06C95FD0E002E028E830E09B
:1024A000AE0170E060E090E080E00E94900A28E8D1
:1024B00030E0AE0170E060E080E890E08C1B9D0BA6
:1024C0000E94900A312CA2E07A2E10E080E8682E5B
:1024D0006F18B3E05B2ECF2DD0E04E0123E0821ABF
:1024E00091080AE7402E2697153009F4A6C015304A
:1024F00008F0362CF60180819181892B61F1F6E795
:10250000F71510F476E7772E10920D0650920C0610
:10251000E72CF12CA32CB12C40E251E0B70115308F
:1025200008F08EC0CE018A0D9B1D0E949C0802E01F
:1025300022E130E0A401B701C5010E94900AA70181
:102540004E5F5F4F632D70E06D5F7F4FF6018081BE
:1025500091810E94F110FDE17F0E1F5F22E0C20E0B
:10256000D11C1A3009F610920E060E940007182F8F
:1025700086E8E82EE11AF12CC0910B06D0E04EE976
:1025800051E0B701CE010E949C084EE951E0B7012D
:102590008CE790E08C1B9D0B0E949C0893E0D92E49
:1025A000D0920D06D0920C060E940007282F30E032
:1025B0002E5F3F4F4EE350E04C1B5D0B440F551F09
:1025C00001E0B701CE0102960E94900A10920D061A
:1025D00007E8011B10E0BE016D5F7F4FA80182E498
:1025E00093E00E94F11060910B0670E0625E7F4FF5
:1025F000A80187E493E00E94F11060910B0670E05F
:10260000675C7F4FA8018CE493E00E94F110D092A8
:102610000D0610920C06DF91CF911F910F91FF9044
:10262000EF90DF90CF90BF90AF909F908F907F9072
:102630006F905F904F903F900895E2E07E2E59CFCB
:10264000C5010E949C0802E022E130E0A401B7012C
:10265000C50103960E94900AF601A081B181FD0197
:1026600001900020E9F731975F01AA1ABB0A0E9486
:102670001307342C8A9D3018112461CF1F920F92BA
:102680000FB60F9211240BB60F92EF92FF920F9399
:102690001F932F933F934F935F936F937F938F93EA
:1026A0009F93AF93BF93EF93FF93CF93DF93CDB7F8
:1026B000DEB7DA95DEBFCDBF8091C7038770A1F08A
:1026C00000917B0110E0CE0101967C01A80160E839
:1026D00071E00E94741AF70102501109CF018E199E
:1026E0009F0980179107FCF0D3950FB6F894DEBFD1
:1026F0000FBECDBFDF91CF91FF91EF91BF91AF9111
:102700009F918F917F916F915F914F913F912F9109
:102710001F910F91FF90EF900F900BBE0F900FBE87
:102720000F901F90189531912FB7F894809118064B
:1027300090911906609116067091170686179707F3
:1027400058F02FBF80912406909125060196909312
:10275000250680932406C2CF40911A0650911B068D
:10276000840F951F0E944C1AA0911406B091150673
:10277000A80FB91F3C9380911806909119060196F5
:1027800090931906809318062FBFA8CF1F920F921F
:102790000FB60F9211248F93809146018093C70347
:1027A0008F910F900FBE0F901F9018951F920F9250
:1027B0000FB60F9211240F900FBE0F901F90189517
:1027C0001F920F920FB60F9211248F9383B78E7FB3
:1027D00083BF8F910F900FBE0F901F9018951F927F
:1027E0000F920FB60F9211248F939F93AF93BF93C5
:1027F0008091C6038F5F8093C6038091C6038A30A1
:10280000A8F01092C60380910F0690911006A09137
:102810001106B09112060196A11DB11D80930F06FD
:1028200090931006A0931106B0931206BF91AF913A
:102830009F918F910F900FBE0F901F901895CF937F
:10284000DF9300D000D000D01F92CDB7DEB7F89450
:102850001092B0001092B1001092B20087EC8093F9
:10286000B3008091B10082608093B1008091B0008C
:1028700082608093B00080917000826080937000CD
:10288000789410920706109208061092090610928A
:102890000A0652985A9A539A5B9A80EC80937C006D
:1028A00087E880937A0010927B0084E5809377001C
:1028B00087E980937A0080917A00806480937A001F
:1028C00080910F0690911006A0911106B09112060A
:1028D00081E00E948A09209127062983211103C0E3
:1028E00081E00E948A09109206061092050638E0DF
:1028F000209146018091050690910606880F991F48
:10290000880F991F229526952370822B9093060697
:10291000809305068FE99FE00197F1F700C0000062
:10292000315031F780910506909106060E94A31957
:102930009981911102C00E94750900EE12E0AAED82
:10294000B2E0BA83A98361E0E981FA818191FA83D7
:10295000E9830E94ED0829813A810217130799F74C
:1029600010920406109203061092FF0510920006C2
:10297000109201061092020661E080EB0E94B007FF
:1029800062E080EB0E94ED0880E58CBD31E03DBD4A
:102990008DB58EB562E081EB0E94ED0862E082EBBE
:1029A0000E94ED0862E087EE0E94ED0861E087EE8C
:1029B0000E94B00762E086ED0E94ED0862E082EAC4
:1029C0000E94ED0861E082EA0E94B0074FEF50E7F5
:1029D00082E0415050408040E1F700C0000060E0DC
:1029E00082EA0E94B007AFE1BEE41197F1F700C0A0
:1029F000000061E082EA0E94B007BFEFE2E5F7E085
:102A0000B150E040F040E1F700C0000021E0209329
:102A100028068FEE91E00E94960E8AE00E941B0825
:102A2000E0910C06F0E0EA52FD4F80810E94750BA8
:102A3000E9EEF5E086E1DF011D928A95E9F781EA8A
:102A400096E09093E4058093E30586E08093E505A6
:102A500088E08093E605B1E0B093E7058093E80550
:102A600025E232E03093EB052093EA058093EC05F4
:102A70008CE08093ED05B093EE058093EF0587E041
:102A8000E3EEF5E0A1EFB5E001900D928A95E1F754
:102A900083E08093F70597E0EAEEF5E0A8EFB5E074
:102AA00001900D929A95E1F78093FE0580930D06B3
:102AB00010920C061092E2051092E1051092E005CA
:102AC0001092DF0540900F0650901006609011069E
:102AD000709012060E94061173016201B12CA12CA4
:102AE00002E0902E83E4282E312C82ED0E948E0786
:102AF000811175C38091070690910806A09109067F
:102B0000B0910A060097A105B10509F0E8C28091CD
:102B10000F0690911006A0911106B09112068851EF
:102B20009C4FAF4FBF4F8093070690930806A0932A
:102B30000906B0930A0680910F0690911006A091A5
:102B40001106B091120684159505A605B70508F47F
:102B500002C140900F0650901006609011067090D0
:102B60001206E8EE4E0EE3E05E1E611C711CFFEFE4
:102B7000AF1ABF0A10920E0610920D0683E08093E2
:102B80000C0680917A00806480937A0080917A00AC
:102B900086FDFCCF209178008091790090E0982FFD
:102BA0008827820F911D26E0289FA001299F500DA4
:102BB00011245A8349830E94000767E870E0681B6C
:102BC000710980910B0690E00D960E94370789816C
:102BD0009A8168EE73E00E944C1A9B016AE070E0F3
:102BE0000E944C1A7F936F933F932F9381E593E05C
:102BF0009F938F93B1E0BF930E94B50B0E94000793
:102C000067E870E0681B710980910B0690E0889678
:102C10000E943707BF92AF92EAE5F3E0FF93EF938C
:102C200031E03F930E94B50B0E94000767E870E017
:102C3000681B710980910B0690E08D5B9F4F0E948D
:102C400037070FB6F894DEBF0FBECDBF51E0951623
:102C500009F4D7C259150CF4CBC28EE593E0992044
:102C600009F4D1C283E080930D0610920C061092F5
:102C70000E069812CEC20E944A07181619060CF0CA
:102C8000CBC20E944D0A9A8389830E940007A1014A
:102C9000481B5109440F551F60910B0670E06D5F92
:102CA0007F4F8EE693E00E94F11089819A810E9405
:102CB000C41089819A810E94AE199A8389838EEF0C
:102CC000890D823008F04AC0E981FA81EF3FFE07A2
:102CD00009F441C0FF93EF9343E753E05F934F93B1
:102CE00082E08F930E94B50B0E940007182F0E946C
:102CF0001307B101611B7109660F771F20910B0645
:102D000030E02D5F3F4FD901ECE08E9FA00DB11D4B
:102D10001124CD010E9437070F900F900F900F9054
:102D20000F90F3E088E793E09F1611F08DE793E0B2
:102D30000E94C4102A812F9339813F9343E753E0C7
:102D40005F934F9381E08F930E94B50B0F900F908C
:102D50000F900F900F9093E0991619F10E944A0777
:102D600018161906F4F40E944D0A9A838983DC012F
:102D70008C918823B1F010920E060E940007A101E9
:102D8000481B5109440F551F60910B0670E06D5FA1
:102D90007F4F82E893E00E94F11089819A810E941E
:102DA000C41080910F0690911006A0911106B09169
:102DB00012068C159D05AE05BF0508F496CEC09091
:102DC0000F06D0901006E0901106F0901206BAE0BF
:102DD000CB0ED11CE11CF11C8AE0E5EDF5E0ABEC7B
:102DE000B5E001900D928A95E1F740910F06509160
:102DF000100660911106709112068091FF05909166
:102E00000006A0910106B0910206481759076A070B
:102E10007B0708F484C080910F0690911006A09162
:102E20001106B09112060A96A11DB11D8093FF05EF
:102E300090930006A0930106B0930206E5EDF5E03D
:102E4000FE83ED832CEC32E03A832983AD81BE8191
:102E50001C92E981FA818190FA83E98362E0882DEE
:102E60000E94ED0860E0882D0E94B0072AED32E054
:102E70003C832B8310E000E0AB81BC818D91BC834F
:102E8000AB830E948E0781110CC0ED81FE812081F1
:102E900081E090E0002E01C0880F0A94EAF7822BAF
:102EA00080830F5F1F4F0630110531F761E0882DD9
:102EB0000E94B00760E0882D0E94ED082D813E81C0
:102EC0002F5F3F4F3E832D8346ED52E089819A81EB
:102ED0004817590709F0BACF3091DC0533FB882732
:102EE00080F92091DD0523FD8F5F24FD8F5F909198
:102EF000DE0593FD8F5F94FD8F5F823018F02860B0
:102F00002093DD058091DD0583FF09C0377F309375
:102F1000DC058F7E8093DD05977E9093DE058091A2
:102F2000D505982F9870998383FF7BC1A4E1AF8367
:102F3000B82FB071BB8384FF02C0E5E1EF83A5ED3C
:102F4000B5E0EBECF5E030E020E0A9010D9190E078
:102F500080E0122F8D8361E070E0082E01C0660FC3
:102F60000A94EAF7802E8622861260C17081672358
:102F700009F05CC1111107C0682F6350623008F47A
:102F800055C150E040E0F9812CE832E0F11106C073
:102F90002B81222309F447C124E132E0BA016F5F9B
:102FA0007F4FE4E0660F771FEA95E1F7AD81AF5FF1
:102FB0006A2B7AE0789FF001799FF00D11242E0F93
:102FC0003F1F240F351FF901F0812F2F362F3C832F
:102FD0002B83309304062093030680910F06909173
:102FE0001006A0911106B09112061B8182E0809319
:102FF0000E069C819923E9F00E94000789830E94B4
:1030000013074C814F704150A9814A9FA0011124A0
:10301000485F5F4F9C8192959F70915060910B0625
:1030200070E0989F600D711D112481E993E00E946A
:10303000F110112309F459CD1C3809F00BC180910E
:103040002806882339F08091CA05843118F48F5FEF
:103050000E941B0810920E061A3809F00DC1BFEF2E
:10306000B90DB983F9819F1609F43FCD0E9400077D
:10307000A101481B5109440F551F60910B0670E0D8
:103080006D5F7F4F86E893E00E94F1100E94000779
:103090008B830E941307A1012B81421B5109440F0E
:1030A000551F60910B0670E06D5F7F4F3CE0839F82
:1030B000600D711D112486E893E00E94F110498192
:1030C00047FDE8C0443009F4DEC09110E8C0442355
:1030D00009F40BCD81E00E948A09998006CD4091C8
:1030E0000F06509110066091110670911206841718
:1030F0009507A607B70708F01ECD82ED0E948E0740
:103100008823D9F310920706109208061092090638
:1031100010920A0691100E94750980912806882352
:1031200061F0E0910C06F0E0EA52FD4F80810E94D0
:10313000750B86EE91E00E94960E83B7817F8460C6
:1031400083BFF89482E08093390110927A00A4B191
:10315000F5B1EAB17BB16DB15EB140B331B323B328
:1031600094B352985A9AEA98809169008F7C809320
:103170006900E29AEA9A789483B7817F846083BF7A
:1031800083B7816083BF889583B78E7F83BFF894B0
:10319000E29AEA98A4B9F5B9EAB97BB96DB95EB912
:1031A00040BB31BB23BB94BB789480912806882315
:1031B00021F08FEE91E00E94960E992019F081E0A7
:1031C0000E948A0940900F065090100660901106E8
:1031D000709012060E94061173016201ACCC10922D
:1031E0000706109208061092090610920A06A3CC50
:1031F00082E0981659F093E0991234CD8AE693E074
:1032000002C082E693E00E94C4102CCD86E693E0D3
:10321000FACFBA82A98253CDAFEFBFEFBA83A983A9
:103220004ECD1F8285CE20E532E0B8CE01968630A5
:10323000910509F08FCE2F5F3F4F31962A3031052F
:1032400009F083CE5F81452F50E0942F88279C831F
:103250008B83CBCE1D3809F0FDCE809128068823C4
:1032600009F4F8CE8091CA05823008F4F3CE81507B
:10327000EFCE53E059832ECF1B3809F036CCE1E076
:10328000E90DE983EFCE992009F42FCC0E9475094E
:10329000912C2BCC992069F383E0982E26CC898140
:1032A000982E811122CCF2CF8F929F92AF92BF9233
:1032B000CF92DF92EF92FF92CF93DF93EC01688180
:1032C00079818A819B81611571058105910521F4C0
:1032D00064E279ED8BE597E02DE133EF41E050E0DA
:1032E0000E94DD1949015A019B01AC01A7EAB1E432
:1032F0000E94FC196B017C01ACEEB4EFA5019401B6
:103300000E940A1ADC01CB018C0D9D1DAE1DBF1D54
:10331000B7FF03C00197A109B04888839983AA83A6
:10332000BB839F77DF91CF91FF90EF90DF90CF909D
:10333000BF90AF909F908F9008950C94541988EC93
:1033400092E00C945419B0E0A0E08093C8029093EE
:10335000C902A093CA02B093CB020895FC0188274A
:103360009927E89421912032E9F3293010F02E308A
:10337000C8F32B3241F02D3239F4689404C00E9416
:10338000D519820F911D219120532A30C0F31EF4CC
:10339000909581959F4F0895FB01DC0102C0059037
:1033A0000D9241505040D8F708957AE0979F902DA4
:1033B000879F802D910D11240895052E97FB1EF4F3
:1033C00000940E94F41957FD07D00E940F1A07FCC1
:1033D00003D04EF40C94F4195095409530952195F6
:1033E0003F4F4F4F5F4F0895909580957095619531
:1033F0007F4F8F4F9F4F08950E94311AA59F900DC8
:10340000B49F900DA49F800D911D11240895B7FFC6
:103410000C94FC190E94FC19821B930B0895A1E2E5
:103420001A2EAA1BBB1BFD010DC0AA1FBB1FEE1F3E
:10343000FF1FA217B307E407F50720F0A21BB30B89
:10344000E40BF50B661F771F881F991F1A9469F705
:1034500060957095809590959B01AC01BD01CF0161
:103460000895A29FB001B39FC001A39F700D811D5D
:103470001124911DB29F700D811D1124911D08957D
:10348000991B79E004C0991F961708F0961B881FB6
:103490007A95C9F780950895AA1BBB1B51E107C017
:1034A000AA1FBB1FA617B70710F0A61BB70B881FD4
:1034B000991F5A95A9F780959095BC01CD01089563
:1034C00097FB072E16F4009407D077FD09D00E94D1
:1034D0004C1A07FC05D03EF4909581959F4F0895B6
:1034E000709561957F4F0895FB01DC0102C001904A
:1034F0000D9241505040D8F70895DC0101C06D9302
:0C35000041505040E0F70895F894FFCFD0
:10350C00930398039D03A203A703AC03B103B60373
:10351C00BB03C00321B5B62425B727222829515750
:10352C0045525459553B5B5D3D2B2D4647484A3A15
:10353C003F1B002A2F435642B89B0D9A00B0B3B4E0
:10354C00FF3C3EB99C9DA0A1A2A3A4A5A6A7A8A997
:10355C0031323334353637383930717765727479A6
:10356C0075696F706173646667686A6B6C08007A62
:10357C00786376626E8D0D8C00B0B1B2202C2E6DFE
:10358C008A8B808182838485868788893132333423
:10359C0035363738393051574552545955494F50B3
:1035AC004153444647484A4B4C1B005A58435642D9
:1035BC004E9B0D9A00FEFCFD5F2C2E4D9C9D909118
:1035CC00929394959697989901000000E4F1F3E298
:1035DC00E1D7A0A5D5D4002592FFE6B7B6B5B4E0E7
:1035EC0051574552545955494F5000415344464741
:1035FC00484A4B4C2A002A5A584356424E76205E73
:10360C00002A6672655F2C2E4D3C3E00616263643D
:10361C0065666768696A005665723A200025642EF3
:10362C002530326425303264004161426547714B6C
:10363C0077406F305F232D3132333435363738399C
:10364C0030004261743A004E756D3A005246783A39
:10365C000025642E253032645600253575004F4602
:10366C004600525820005458200045432000524533
:10367C003A2000253035750054453A200054583A0C
:10368C00200052583A0020202020202020202020EA
:10369C002020004C422D61004C422D62004C422DEA
:1036AC0063004C422D64004C422D650052422D6645
:1036BC000052422D670052422D680052422D690083
:0636CC0052422D6A0000CD
:00000001FF
